{
  "contracts/VulnerableContract.sol": {
    "VulnerableContract": {
      "abi": [
        {
          "inputs": [],
          "name": "EnforcedPause",
          "type": "error"
        },
        {
          "inputs": [],
          "name": "ExpectedPause",
          "type": "error"
        },
        {
          "inputs": [],
          "name": "InvalidInitialization",
          "type": "error"
        },
        {
          "inputs": [],
          "name": "NotInitializing",
          "type": "error"
        },
        {
          "inputs": [
            {
              "internalType": "address",
              "name": "owner",
              "type": "address"
            }
          ],
          "name": "OwnableInvalidOwner",
          "type": "error"
        },
        {
          "inputs": [
            {
              "internalType": "address",
              "name": "account",
              "type": "address"
            }
          ],
          "name": "OwnableUnauthorizedAccount",
          "type": "error"
        },
        {
          "anonymous": false,
          "inputs": [
            {
              "indexed": false,
              "internalType": "uint64",
              "name": "version",
              "type": "uint64"
            }
          ],
          "name": "Initialized",
          "type": "event"
        },
        {
          "anonymous": false,
          "inputs": [
            {
              "indexed": true,
              "internalType": "address",
              "name": "previousOwner",
              "type": "address"
            },
            {
              "indexed": true,
              "internalType": "address",
              "name": "newOwner",
              "type": "address"
            }
          ],
          "name": "OwnershipTransferred",
          "type": "event"
        },
        {
          "anonymous": false,
          "inputs": [
            {
              "indexed": false,
              "internalType": "address",
              "name": "account",
              "type": "address"
            }
          ],
          "name": "Paused",
          "type": "event"
        },
        {
          "anonymous": false,
          "inputs": [
            {
              "indexed": true,
              "internalType": "address",
              "name": "user",
              "type": "address"
            },
            {
              "indexed": false,
              "internalType": "uint256",
              "name": "entry",
              "type": "uint256"
            }
          ],
          "name": "Reentrancy",
          "type": "event"
        },
        {
          "anonymous": false,
          "inputs": [
            {
              "indexed": false,
              "internalType": "address",
              "name": "account",
              "type": "address"
            }
          ],
          "name": "Unpaused",
          "type": "event"
        },
        {
          "inputs": [
            {
              "internalType": "address",
              "name": "",
              "type": "address"
            }
          ],
          "name": "balanceOf",
          "outputs": [
            {
              "internalType": "uint256",
              "name": "",
              "type": "uint256"
            }
          ],
          "stateMutability": "view",
          "type": "function"
        },
        {
          "inputs": [],
          "name": "deposit",
          "outputs": [],
          "stateMutability": "payable",
          "type": "function"
        },
        {
          "inputs": [
            {
              "internalType": "address",
              "name": "_owner",
              "type": "address"
            }
          ],
          "name": "initialize",
          "outputs": [],
          "stateMutability": "nonpayable",
          "type": "function"
        },
        {
          "inputs": [],
          "name": "owner",
          "outputs": [
            {
              "internalType": "address",
              "name": "",
              "type": "address"
            }
          ],
          "stateMutability": "view",
          "type": "function"
        },
        {
          "inputs": [],
          "name": "pause",
          "outputs": [],
          "stateMutability": "nonpayable",
          "type": "function"
        },
        {
          "inputs": [],
          "name": "paused",
          "outputs": [
            {
              "internalType": "bool",
              "name": "",
              "type": "bool"
            }
          ],
          "stateMutability": "view",
          "type": "function"
        },
        {
          "inputs": [],
          "name": "renounceOwnership",
          "outputs": [],
          "stateMutability": "nonpayable",
          "type": "function"
        },
        {
          "inputs": [
            {
              "internalType": "address",
              "name": "newOwner",
              "type": "address"
            }
          ],
          "name": "transferOwnership",
          "outputs": [],
          "stateMutability": "nonpayable",
          "type": "function"
        },
        {
          "inputs": [],
          "name": "unpause",
          "outputs": [],
          "stateMutability": "nonpayable",
          "type": "function"
        },
        {
          "inputs": [],
          "name": "withdraw",
          "outputs": [],
          "stateMutability": "nonpayable",
          "type": "function"
        }
      ],
      "evm": {
        "bytecode": {
          "linkReferences": {},
          "object": "608060405234801561001057600080fd5b5061088f806100206000396000f3fe6080604052600436106100915760003560e01c80638456cb59116100595780638456cb59146101595780638da5cb5b1461016e578063c4d66de8146101b5578063d0e30db0146101d5578063f2fde38b146101dd57600080fd5b80633ccfd60b146100965780633f4ba83a146100ad5780635c975abb146100c257806370a0823114610109578063715018a614610144575b600080fd5b3480156100a257600080fd5b506100ab6101fd565b005b3480156100b957600080fd5b506100ab610313565b3480156100ce57600080fd5b507fcd5ed15c6e187e77e9aee88184c21f4f2182ab5827cb3b7e07fbedcd63f033005460ff1660405190151581526020015b60405180910390f35b34801561011557600080fd5b506101366101243660046107e1565b60006020819052908152604090205481565b604051908152602001610100565b34801561015057600080fd5b506100ab610325565b34801561016557600080fd5b506100ab610337565b34801561017a57600080fd5b507f9016d09d72d40fdae2fd8ceac6b6234c7706214fd39c1cd1e609a0528c199300546040516001600160a01b039091168152602001610100565b3480156101c157600080fd5b506100ab6101d03660046107e1565b610347565b6100ab6104b9565b3480156101e957600080fd5b506100ab6101f83660046107e1565b6104e7565b610205610525565b33600081815260208190526040812054600180549193927f2ee655c07a1337ecaed3367e6a131d330669c34edcb13c90e6ded27b347c73c29261024790610827565b918290555060405190815260200160405180910390a2604051600090339083908381818185875af1925050503d806000811461029f576040519150601f19603f3d011682016040523d82523d6000602084013e6102a4565b606091505b50509050806102fa5760405162461bcd60e51b815260206004820152600f60248201527f7769746864726177206661696c6564000000000000000000000000000000000060448201526064015b60405180910390fd5b5050336000908152602081905260408120819055600155565b61031b610568565b6103236105c3565b565b61032d610568565b6103236000610635565b61033f610568565b6103236106b3565b7ff0c57e16840df040f15088dc2f81fe391c3923bec73e23a9662efc9c229c6a00805468010000000000000000810460ff16159067ffffffffffffffff166000811580156103925750825b905060008267ffffffffffffffff1660011480156103af5750303b155b9050811580156103bd575080155b156103db5760405163f92ee8a960e01b815260040160405180910390fd5b845467ffffffffffffffff19166001178555831561040f57845468ff00000000000000001916680100000000000000001785555b6001600160a01b0386166104555760405162461bcd60e51b815260206004820152600d60248201526c24b73b30b4b6321027bbb732b960991b60448201526064016102f1565b61045e86610635565b61046661070e565b83156104b157845468ff000000000000000019168555604051600181527fc7f505b2f371ae2175ee4913f4499e1f2633a7b5936321eed1cdaeb6115181d29060200160405180910390a15b505050505050565b6104c1610525565b33600090815260208190526040812080543492906104e0908490610840565b9091555050565b6104ef610568565b6001600160a01b03811661051957604051631e4fbdf760e01b8152600060048201526024016102f1565b61052281610635565b50565b7fcd5ed15c6e187e77e9aee88184c21f4f2182ab5827cb3b7e07fbedcd63f033005460ff16156103235760405163d93c066560e01b815260040160405180910390fd5b3361059a7f9016d09d72d40fdae2fd8ceac6b6234c7706214fd39c1cd1e609a0528c199300546001600160a01b031690565b6001600160a01b0316146103235760405163118cdaa760e01b81523360048201526024016102f1565b6105cb61071e565b7fcd5ed15c6e187e77e9aee88184c21f4f2182ab5827cb3b7e07fbedcd63f03300805460ff191681557f5db9ee0a495bf2e6ff9c91a7834c1ba4fdd244a5e8aa4e537bd38aeae4b073aa335b6040516001600160a01b03909116815260200160405180910390a150565b7f9016d09d72d40fdae2fd8ceac6b6234c7706214fd39c1cd1e609a0528c199300805473ffffffffffffffffffffffffffffffffffffffff1981166001600160a01b03848116918217845560405192169182907f8be0079c531659141344cd1fd0a4f28419497f9722a3daafe3b4186f6b6457e090600090a3505050565b6106bb610525565b7fcd5ed15c6e187e77e9aee88184c21f4f2182ab5827cb3b7e07fbedcd63f03300805460ff191660011781557f62e78cea01bee320cd4e420270b5ea74000d11b0c9f74754ebdbfc544b05a25833610617565b610716610760565b6103236107ae565b7fcd5ed15c6e187e77e9aee88184c21f4f2182ab5827cb3b7e07fbedcd63f033005460ff1661032357604051638dfc202b60e01b815260040160405180910390fd5b7ff0c57e16840df040f15088dc2f81fe391c3923bec73e23a9662efc9c229c6a005468010000000000000000900460ff1661032357604051631afcd79f60e31b815260040160405180910390fd5b6107b6610760565b7fcd5ed15c6e187e77e9aee88184c21f4f2182ab5827cb3b7e07fbedcd63f03300805460ff19169055565b6000602082840312156107f357600080fd5b81356001600160a01b038116811461080a57600080fd5b9392505050565b634e487b7160e01b600052601160045260246000fd5b60006001820161083957610839610811565b5060010190565b8082018082111561085357610853610811565b9291505056fea2646970667358221220ee719f46bdf28abfb14dadb1d9f480dffac4789bda45340000d60dffcc59c89964736f6c63430008180033",
          "opcodes": "PUSH1 0x80 PUSH1 0x40 MSTORE CALLVALUE DUP1 ISZERO PUSH2 0x10 JUMPI PUSH1 0x0 DUP1 REVERT JUMPDEST POP PUSH2 0x88F DUP1 PUSH2 0x20 PUSH1 0x0 CODECOPY PUSH1 0x0 RETURN INVALID PUSH1 0x80 PUSH1 0x40 MSTORE PUSH1 0x4 CALLDATASIZE LT PUSH2 0x91 JUMPI PUSH1 0x0 CALLDATALOAD PUSH1 0xE0 SHR DUP1 PUSH4 0x8456CB59 GT PUSH2 0x59 JUMPI DUP1 PUSH4 0x8456CB59 EQ PUSH2 0x159 JUMPI DUP1 PUSH4 0x8DA5CB5B EQ PUSH2 0x16E JUMPI DUP1 PUSH4 0xC4D66DE8 EQ PUSH2 0x1B5 JUMPI DUP1 PUSH4 0xD0E30DB0 EQ PUSH2 0x1D5 JUMPI DUP1 PUSH4 0xF2FDE38B EQ PUSH2 0x1DD JUMPI PUSH1 0x0 DUP1 REVERT JUMPDEST DUP1 PUSH4 0x3CCFD60B EQ PUSH2 0x96 JUMPI DUP1 PUSH4 0x3F4BA83A EQ PUSH2 0xAD JUMPI DUP1 PUSH4 0x5C975ABB EQ PUSH2 0xC2 JUMPI DUP1 PUSH4 0x70A08231 EQ PUSH2 0x109 JUMPI DUP1 PUSH4 0x715018A6 EQ PUSH2 0x144 JUMPI JUMPDEST PUSH1 0x0 DUP1 REVERT JUMPDEST CALLVALUE DUP1 ISZERO PUSH2 0xA2 JUMPI PUSH1 0x0 DUP1 REVERT JUMPDEST POP PUSH2 0xAB PUSH2 0x1FD JUMP JUMPDEST STOP JUMPDEST CALLVALUE DUP1 ISZERO PUSH2 0xB9 JUMPI PUSH1 0x0 DUP1 REVERT JUMPDEST POP PUSH2 0xAB PUSH2 0x313 JUMP JUMPDEST CALLVALUE DUP1 ISZERO PUSH2 0xCE JUMPI PUSH1 0x0 DUP1 REVERT JUMPDEST POP PUSH32 0xCD5ED15C6E187E77E9AEE88184C21F4F2182AB5827CB3B7E07FBEDCD63F03300 SLOAD PUSH1 0xFF AND PUSH1 0x40 MLOAD SWAP1 ISZERO ISZERO DUP2 MSTORE PUSH1 0x20 ADD JUMPDEST PUSH1 0x40 MLOAD DUP1 SWAP2 SUB SWAP1 RETURN JUMPDEST CALLVALUE DUP1 ISZERO PUSH2 0x115 JUMPI PUSH1 0x0 DUP1 REVERT JUMPDEST POP PUSH2 0x136 PUSH2 0x124 CALLDATASIZE PUSH1 0x4 PUSH2 0x7E1 JUMP JUMPDEST PUSH1 0x0 PUSH1 0x20 DUP2 SWAP1 MSTORE SWAP1 DUP2 MSTORE PUSH1 0x40 SWAP1 KECCAK256 SLOAD DUP2 JUMP JUMPDEST PUSH1 0x40 MLOAD SWAP1 DUP2 MSTORE PUSH1 0x20 ADD PUSH2 0x100 JUMP JUMPDEST CALLVALUE DUP1 ISZERO PUSH2 0x150 JUMPI PUSH1 0x0 DUP1 REVERT JUMPDEST POP PUSH2 0xAB PUSH2 0x325 JUMP JUMPDEST CALLVALUE DUP1 ISZERO PUSH2 0x165 JUMPI PUSH1 0x0 DUP1 REVERT JUMPDEST POP PUSH2 0xAB PUSH2 0x337 JUMP JUMPDEST CALLVALUE DUP1 ISZERO PUSH2 0x17A JUMPI PUSH1 0x0 DUP1 REVERT JUMPDEST POP PUSH32 0x9016D09D72D40FDAE2FD8CEAC6B6234C7706214FD39C1CD1E609A0528C199300 SLOAD PUSH1 0x40 MLOAD PUSH1 0x1 PUSH1 0x1 PUSH1 0xA0 SHL SUB SWAP1 SWAP2 AND DUP2 MSTORE PUSH1 0x20 ADD PUSH2 0x100 JUMP JUMPDEST CALLVALUE DUP1 ISZERO PUSH2 0x1C1 JUMPI PUSH1 0x0 DUP1 REVERT JUMPDEST POP PUSH2 0xAB PUSH2 0x1D0 CALLDATASIZE PUSH1 0x4 PUSH2 0x7E1 JUMP JUMPDEST PUSH2 0x347 JUMP JUMPDEST PUSH2 0xAB PUSH2 0x4B9 JUMP JUMPDEST CALLVALUE DUP1 ISZERO PUSH2 0x1E9 JUMPI PUSH1 0x0 DUP1 REVERT JUMPDEST POP PUSH2 0xAB PUSH2 0x1F8 CALLDATASIZE PUSH1 0x4 PUSH2 0x7E1 JUMP JUMPDEST PUSH2 0x4E7 JUMP JUMPDEST PUSH2 0x205 PUSH2 0x525 JUMP JUMPDEST CALLER PUSH1 0x0 DUP2 DUP2 MSTORE PUSH1 0x20 DUP2 SWAP1 MSTORE PUSH1 0x40 DUP2 KECCAK256 SLOAD PUSH1 0x1 DUP1 SLOAD SWAP2 SWAP4 SWAP3 PUSH32 0x2EE655C07A1337ECAED3367E6A131D330669C34EDCB13C90E6DED27B347C73C2 SWAP3 PUSH2 0x247 SWAP1 PUSH2 0x827 JUMP JUMPDEST SWAP2 DUP3 SWAP1 SSTORE POP PUSH1 0x40 MLOAD SWAP1 DUP2 MSTORE PUSH1 0x20 ADD PUSH1 0x40 MLOAD DUP1 SWAP2 SUB SWAP1 LOG2 PUSH1 0x40 MLOAD PUSH1 0x0 SWAP1 CALLER SWAP1 DUP4 SWAP1 DUP4 DUP2 DUP2 DUP2 DUP6 DUP8 GAS CALL SWAP3 POP POP POP RETURNDATASIZE DUP1 PUSH1 0x0 DUP2 EQ PUSH2 0x29F JUMPI PUSH1 0x40 MLOAD SWAP2 POP PUSH1 0x1F NOT PUSH1 0x3F RETURNDATASIZE ADD AND DUP3 ADD PUSH1 0x40 MSTORE RETURNDATASIZE DUP3 MSTORE RETURNDATASIZE PUSH1 0x0 PUSH1 0x20 DUP5 ADD RETURNDATACOPY PUSH2 0x2A4 JUMP JUMPDEST PUSH1 0x60 SWAP2 POP JUMPDEST POP POP SWAP1 POP DUP1 PUSH2 0x2FA JUMPI PUSH1 0x40 MLOAD PUSH3 0x461BCD PUSH1 0xE5 SHL DUP2 MSTORE PUSH1 0x20 PUSH1 0x4 DUP3 ADD MSTORE PUSH1 0xF PUSH1 0x24 DUP3 ADD MSTORE PUSH32 0x7769746864726177206661696C65640000000000000000000000000000000000 PUSH1 0x44 DUP3 ADD MSTORE PUSH1 0x64 ADD JUMPDEST PUSH1 0x40 MLOAD DUP1 SWAP2 SUB SWAP1 REVERT JUMPDEST POP POP CALLER PUSH1 0x0 SWAP1 DUP2 MSTORE PUSH1 0x20 DUP2 SWAP1 MSTORE PUSH1 0x40 DUP2 KECCAK256 DUP2 SWAP1 SSTORE PUSH1 0x1 SSTORE JUMP JUMPDEST PUSH2 0x31B PUSH2 0x568 JUMP JUMPDEST PUSH2 0x323 PUSH2 0x5C3 JUMP JUMPDEST JUMP JUMPDEST PUSH2 0x32D PUSH2 0x568 JUMP JUMPDEST PUSH2 0x323 PUSH1 0x0 PUSH2 0x635 JUMP JUMPDEST PUSH2 0x33F PUSH2 0x568 JUMP JUMPDEST PUSH2 0x323 PUSH2 0x6B3 JUMP JUMPDEST PUSH32 0xF0C57E16840DF040F15088DC2F81FE391C3923BEC73E23A9662EFC9C229C6A00 DUP1 SLOAD PUSH9 0x10000000000000000 DUP2 DIV PUSH1 0xFF AND ISZERO SWAP1 PUSH8 0xFFFFFFFFFFFFFFFF AND PUSH1 0x0 DUP2 ISZERO DUP1 ISZERO PUSH2 0x392 JUMPI POP DUP3 JUMPDEST SWAP1 POP PUSH1 0x0 DUP3 PUSH8 0xFFFFFFFFFFFFFFFF AND PUSH1 0x1 EQ DUP1 ISZERO PUSH2 0x3AF JUMPI POP ADDRESS EXTCODESIZE ISZERO JUMPDEST SWAP1 POP DUP2 ISZERO DUP1 ISZERO PUSH2 0x3BD JUMPI POP DUP1 ISZERO JUMPDEST ISZERO PUSH2 0x3DB JUMPI PUSH1 0x40 MLOAD PUSH4 0xF92EE8A9 PUSH1 0xE0 SHL DUP2 MSTORE PUSH1 0x4 ADD PUSH1 0x40 MLOAD DUP1 SWAP2 SUB SWAP1 REVERT JUMPDEST DUP5 SLOAD PUSH8 0xFFFFFFFFFFFFFFFF NOT AND PUSH1 0x1 OR DUP6 SSTORE DUP4 ISZERO PUSH2 0x40F JUMPI DUP5 SLOAD PUSH9 0xFF0000000000000000 NOT AND PUSH9 0x10000000000000000 OR DUP6 SSTORE JUMPDEST PUSH1 0x1 PUSH1 0x1 PUSH1 0xA0 SHL SUB DUP7 AND PUSH2 0x455 JUMPI PUSH1 0x40 MLOAD PUSH3 0x461BCD PUSH1 0xE5 SHL DUP2 MSTORE PUSH1 0x20 PUSH1 0x4 DUP3 ADD MSTORE PUSH1 0xD PUSH1 0x24 DUP3 ADD MSTORE PUSH13 0x24B73B30B4B6321027BBB732B9 PUSH1 0x99 SHL PUSH1 0x44 DUP3 ADD MSTORE PUSH1 0x64 ADD PUSH2 0x2F1 JUMP JUMPDEST PUSH2 0x45E DUP7 PUSH2 0x635 JUMP JUMPDEST PUSH2 0x466 PUSH2 0x70E JUMP JUMPDEST DUP4 ISZERO PUSH2 0x4B1 JUMPI DUP5 SLOAD PUSH9 0xFF0000000000000000 NOT AND DUP6 SSTORE PUSH1 0x40 MLOAD PUSH1 0x1 DUP2 MSTORE PUSH32 0xC7F505B2F371AE2175EE4913F4499E1F2633A7B5936321EED1CDAEB6115181D2 SWAP1 PUSH1 0x20 ADD PUSH1 0x40 MLOAD DUP1 SWAP2 SUB SWAP1 LOG1 JUMPDEST POP POP POP POP POP POP JUMP JUMPDEST PUSH2 0x4C1 PUSH2 0x525 JUMP JUMPDEST CALLER PUSH1 0x0 SWAP1 DUP2 MSTORE PUSH1 0x20 DUP2 SWAP1 MSTORE PUSH1 0x40 DUP2 KECCAK256 DUP1 SLOAD CALLVALUE SWAP3 SWAP1 PUSH2 0x4E0 SWAP1 DUP5 SWAP1 PUSH2 0x840 JUMP JUMPDEST SWAP1 SWAP2 SSTORE POP POP JUMP JUMPDEST PUSH2 0x4EF PUSH2 0x568 JUMP JUMPDEST PUSH1 0x1 PUSH1 0x1 PUSH1 0xA0 SHL SUB DUP2 AND PUSH2 0x519 JUMPI PUSH1 0x40 MLOAD PUSH4 0x1E4FBDF7 PUSH1 0xE0 SHL DUP2 MSTORE PUSH1 0x0 PUSH1 0x4 DUP3 ADD MSTORE PUSH1 0x24 ADD PUSH2 0x2F1 JUMP JUMPDEST PUSH2 0x522 DUP2 PUSH2 0x635 JUMP JUMPDEST POP JUMP JUMPDEST PUSH32 0xCD5ED15C6E187E77E9AEE88184C21F4F2182AB5827CB3B7E07FBEDCD63F03300 SLOAD PUSH1 0xFF AND ISZERO PUSH2 0x323 JUMPI PUSH1 0x40 MLOAD PUSH4 0xD93C0665 PUSH1 0xE0 SHL DUP2 MSTORE PUSH1 0x4 ADD PUSH1 0x40 MLOAD DUP1 SWAP2 SUB SWAP1 REVERT JUMPDEST CALLER PUSH2 0x59A PUSH32 0x9016D09D72D40FDAE2FD8CEAC6B6234C7706214FD39C1CD1E609A0528C199300 SLOAD PUSH1 0x1 PUSH1 0x1 PUSH1 0xA0 SHL SUB AND SWAP1 JUMP JUMPDEST PUSH1 0x1 PUSH1 0x1 PUSH1 0xA0 SHL SUB AND EQ PUSH2 0x323 JUMPI PUSH1 0x40 MLOAD PUSH4 0x118CDAA7 PUSH1 0xE0 SHL DUP2 MSTORE CALLER PUSH1 0x4 DUP3 ADD MSTORE PUSH1 0x24 ADD PUSH2 0x2F1 JUMP JUMPDEST PUSH2 0x5CB PUSH2 0x71E JUMP JUMPDEST PUSH32 0xCD5ED15C6E187E77E9AEE88184C21F4F2182AB5827CB3B7E07FBEDCD63F03300 DUP1 SLOAD PUSH1 0xFF NOT AND DUP2 SSTORE PUSH32 0x5DB9EE0A495BF2E6FF9C91A7834C1BA4FDD244A5E8AA4E537BD38AEAE4B073AA CALLER JUMPDEST PUSH1 0x40 MLOAD PUSH1 0x1 PUSH1 0x1 PUSH1 0xA0 SHL SUB SWAP1 SWAP2 AND DUP2 MSTORE PUSH1 0x20 ADD PUSH1 0x40 MLOAD DUP1 SWAP2 SUB SWAP1 LOG1 POP JUMP JUMPDEST PUSH32 0x9016D09D72D40FDAE2FD8CEAC6B6234C7706214FD39C1CD1E609A0528C199300 DUP1 SLOAD PUSH20 0xFFFFFFFFFFFFFFFFFFFFFFFFFFFFFFFFFFFFFFFF NOT DUP2 AND PUSH1 0x1 PUSH1 0x1 PUSH1 0xA0 SHL SUB DUP5 DUP2 AND SWAP2 DUP3 OR DUP5 SSTORE PUSH1 0x40 MLOAD SWAP3 AND SWAP2 DUP3 SWAP1 PUSH32 0x8BE0079C531659141344CD1FD0A4F28419497F9722A3DAAFE3B4186F6B6457E0 SWAP1 PUSH1 0x0 SWAP1 LOG3 POP POP POP JUMP JUMPDEST PUSH2 0x6BB PUSH2 0x525 JUMP JUMPDEST PUSH32 0xCD5ED15C6E187E77E9AEE88184C21F4F2182AB5827CB3B7E07FBEDCD63F03300 DUP1 SLOAD PUSH1 0xFF NOT AND PUSH1 0x1 OR DUP2 SSTORE PUSH32 0x62E78CEA01BEE320CD4E420270B5EA74000D11B0C9F74754EBDBFC544B05A258 CALLER PUSH2 0x617 JUMP JUMPDEST PUSH2 0x716 PUSH2 0x760 JUMP JUMPDEST PUSH2 0x323 PUSH2 0x7AE JUMP JUMPDEST PUSH32 0xCD5ED15C6E187E77E9AEE88184C21F4F2182AB5827CB3B7E07FBEDCD63F03300 SLOAD PUSH1 0xFF AND PUSH2 0x323 JUMPI PUSH1 0x40 MLOAD PUSH4 0x8DFC202B PUSH1 0xE0 SHL DUP2 MSTORE PUSH1 0x4 ADD PUSH1 0x40 MLOAD DUP1 SWAP2 SUB SWAP1 REVERT JUMPDEST PUSH32 0xF0C57E16840DF040F15088DC2F81FE391C3923BEC73E23A9662EFC9C229C6A00 SLOAD PUSH9 0x10000000000000000 SWAP1 DIV PUSH1 0xFF AND PUSH2 0x323 JUMPI PUSH1 0x40 MLOAD PUSH4 0x1AFCD79F PUSH1 0xE3 SHL DUP2 MSTORE PUSH1 0x4 ADD PUSH1 0x40 MLOAD DUP1 SWAP2 SUB SWAP1 REVERT JUMPDEST PUSH2 0x7B6 PUSH2 0x760 JUMP JUMPDEST PUSH32 0xCD5ED15C6E187E77E9AEE88184C21F4F2182AB5827CB3B7E07FBEDCD63F03300 DUP1 SLOAD PUSH1 0xFF NOT AND SWAP1 SSTORE JUMP JUMPDEST PUSH1 0x0 PUSH1 0x20 DUP3 DUP5 SUB SLT ISZERO PUSH2 0x7F3 JUMPI PUSH1 0x0 DUP1 REVERT JUMPDEST DUP2 CALLDATALOAD PUSH1 0x1 PUSH1 0x1 PUSH1 0xA0 SHL SUB DUP2 AND DUP2 EQ PUSH2 0x80A JUMPI PUSH1 0x0 DUP1 REVERT JUMPDEST SWAP4 SWAP3 POP POP POP JUMP JUMPDEST PUSH4 0x4E487B71 PUSH1 0xE0 SHL PUSH1 0x0 MSTORE PUSH1 0x11 PUSH1 0x4 MSTORE PUSH1 0x24 PUSH1 0x0 REVERT JUMPDEST PUSH1 0x0 PUSH1 0x1 DUP3 ADD PUSH2 0x839 JUMPI PUSH2 0x839 PUSH2 0x811 JUMP JUMPDEST POP PUSH1 0x1 ADD SWAP1 JUMP JUMPDEST DUP1 DUP3 ADD DUP1 DUP3 GT ISZERO PUSH2 0x853 JUMPI PUSH2 0x853 PUSH2 0x811 JUMP JUMPDEST SWAP3 SWAP2 POP POP JUMP INVALID LOG2 PUSH5 0x6970667358 0x22 SLT KECCAK256 0xEE PUSH18 0x9F46BDF28ABFB14DADB1D9F480DFFAC4789B 0xDA GASLIMIT CALLVALUE STOP STOP 0xD6 0xD SELFDESTRUCT 0xCC MSIZE 0xC8 SWAP10 PUSH5 0x736F6C6343 STOP ADDMOD XOR STOP CALLER "
        },
        "methodIdentifiers": {
          "balanceOf(address)": "70a08231",
          "deposit()": "d0e30db0",
          "initialize(address)": "c4d66de8",
          "owner()": "8da5cb5b",
          "pause()": "8456cb59",
          "paused()": "5c975abb",
          "renounceOwnership()": "715018a6",
          "transferOwnership(address)": "f2fde38b",
          "unpause()": "3f4ba83a",
          "withdraw()": "3ccfd60b"
        }
      },
      "storageLayout": {
        "storage": [
          {
            "astId": 685,
            "contract": "contracts/VulnerableContract.sol:VulnerableContract",
            "label": "balanceOf",
            "offset": 0,
            "slot": "0",
            "type": "t_mapping(t_address,t_uint256)"
          },
          {
            "astId": 687,
            "contract": "contracts/VulnerableContract.sol:VulnerableContract",
            "label": "count",
            "offset": 0,
            "slot": "1",
            "type": "t_uint256"
          }
        ],
        "types": {
          "t_address": {
            "encoding": "inplace",
            "label": "address",
            "numberOfBytes": "20"
          },
          "t_mapping(t_address,t_uint256)": {
            "encoding": "mapping",
            "key": "t_address",
            "label": "mapping(address => uint256)",
            "numberOfBytes": "32",
            "value": "t_uint256"
          },
          "t_uint256": {
            "encoding": "inplace",
            "label": "uint256",
            "numberOfBytes": "32"
          }
        }
      }
    }
  }
}